{
  "contractName": "YieldFarm",
  "abi": [
    {
      "inputs": [
        {
          "internalType": "contract AmogusToken",
          "name": "_amogusToken",
          "type": "address"
        },
        {
          "internalType": "contract StableToken",
          "name": "_stableToken",
          "type": "address"
        }
      ],
      "stateMutability": "nonpayable",
      "type": "constructor"
    },
    {
      "inputs": [],
      "name": "amogusToken",
      "outputs": [
        {
          "internalType": "contract AmogusToken",
          "name": "",
          "type": "address"
        }
      ],
      "stateMutability": "view",
      "type": "function",
      "constant": true
    },
    {
      "inputs": [
        {
          "internalType": "uint256",
          "name": "",
          "type": "uint256"
        }
      ],
      "name": "deposers",
      "outputs": [
        {
          "internalType": "address",
          "name": "",
          "type": "address"
        }
      ],
      "stateMutability": "view",
      "type": "function",
      "constant": true
    },
    {
      "inputs": [
        {
          "internalType": "address",
          "name": "",
          "type": "address"
        }
      ],
      "name": "deposingBalance",
      "outputs": [
        {
          "internalType": "uint256",
          "name": "",
          "type": "uint256"
        }
      ],
      "stateMutability": "view",
      "type": "function",
      "constant": true
    },
    {
      "inputs": [
        {
          "internalType": "address",
          "name": "",
          "type": "address"
        }
      ],
      "name": "hasDeposed",
      "outputs": [
        {
          "internalType": "bool",
          "name": "",
          "type": "bool"
        }
      ],
      "stateMutability": "view",
      "type": "function",
      "constant": true
    },
    {
      "inputs": [
        {
          "internalType": "address",
          "name": "",
          "type": "address"
        }
      ],
      "name": "isDeposing",
      "outputs": [
        {
          "internalType": "bool",
          "name": "",
          "type": "bool"
        }
      ],
      "stateMutability": "view",
      "type": "function",
      "constant": true
    },
    {
      "inputs": [],
      "name": "name",
      "outputs": [
        {
          "internalType": "string",
          "name": "",
          "type": "string"
        }
      ],
      "stateMutability": "view",
      "type": "function",
      "constant": true
    },
    {
      "inputs": [],
      "name": "owner",
      "outputs": [
        {
          "internalType": "address",
          "name": "",
          "type": "address"
        }
      ],
      "stateMutability": "view",
      "type": "function",
      "constant": true
    },
    {
      "inputs": [],
      "name": "stableToken",
      "outputs": [
        {
          "internalType": "contract StableToken",
          "name": "",
          "type": "address"
        }
      ],
      "stateMutability": "view",
      "type": "function",
      "constant": true
    },
    {
      "inputs": [
        {
          "internalType": "uint256",
          "name": "_amount",
          "type": "uint256"
        }
      ],
      "name": "deposeTokens",
      "outputs": [],
      "stateMutability": "nonpayable",
      "type": "function"
    },
    {
      "inputs": [],
      "name": "undeposeTokens",
      "outputs": [],
      "stateMutability": "nonpayable",
      "type": "function"
    },
    {
      "inputs": [],
      "name": "issueToken",
      "outputs": [],
      "stateMutability": "nonpayable",
      "type": "function"
    }
  ],
  "bytecode": "0x60806040526040518060400160405280600f81526020017f4461707020546f6b656e204661726d0000000000000000000000000000000000815250600090805190602001906200005192919062000150565b503480156200005f57600080fd5b50604051620015e0380380620015e083398181016040528101906200008591906200022e565b81600260006101000a81548173ffffffffffffffffffffffffffffffffffffffff021916908373ffffffffffffffffffffffffffffffffffffffff16021790555080600360006101000a81548173ffffffffffffffffffffffffffffffffffffffff021916908373ffffffffffffffffffffffffffffffffffffffff16021790555033600160006101000a81548173ffffffffffffffffffffffffffffffffffffffff021916908373ffffffffffffffffffffffffffffffffffffffff160217905550505062000364565b8280546200015e90620002cb565b90600052602060002090601f016020900481019282620001825760008555620001ce565b82601f106200019d57805160ff1916838001178555620001ce565b82800160010185558215620001ce579182015b82811115620001cd578251825591602001919060010190620001b0565b5b509050620001dd9190620001e1565b5090565b5b80821115620001fc576000816000905550600101620001e2565b5090565b600081519050620002118162000330565b92915050565b60008151905062000228816200034a565b92915050565b600080604083850312156200024257600080fd5b6000620002528582860162000200565b9250506020620002658582860162000217565b9150509250929050565b60006200027c82620002ab565b9050919050565b600062000290826200026f565b9050919050565b6000620002a4826200026f565b9050919050565b600073ffffffffffffffffffffffffffffffffffffffff82169050919050565b60006002820490506001821680620002e457607f821691505b60208210811415620002fb57620002fa62000301565b5b50919050565b7f4e487b7100000000000000000000000000000000000000000000000000000000600052602260045260246000fd5b6200033b8162000283565b81146200034757600080fd5b50565b620003558162000297565b81146200036157600080fd5b50565b61126c80620003746000396000f3fe608060405234801561001057600080fd5b50600436106100a95760003560e01c80637c806685116100715780637c806685146101545780638da5cb5b14610184578063a1ee8c78146101a2578063a9d75b2b146101ac578063ce763cd0146101ca578063d540351f146101e6576100a9565b806306fdde03146100ae5780630d718dd0146100cc5780631926e078146100ea5780633c4303be146100f457806374becfbd14610124575b600080fd5b6100b6610216565b6040516100c39190610e00565b60405180910390f35b6100d46102a4565b6040516100e19190610dca565b60405180910390f35b6100f26102ca565b005b61010e60048036038101906101099190610bcc565b6104a1565b60405161011b9190610daf565b60405180910390f35b61013e60048036038101906101399190610bcc565b6104c1565b60405161014b9190610daf565b60405180910390f35b61016e60048036038101906101699190610bcc565b6104e1565b60405161017b9190610e82565b60405180910390f35b61018c6104f9565b6040516101999190610d34565b60405180910390f35b6101aa61051f565b005b6101b461083d565b6040516101c19190610de5565b60405180910390f35b6101e460048036038101906101df9190610c1e565b610863565b005b61020060048036038101906101fb9190610c1e565b610b4e565b60405161020d9190610d34565b60405180910390f35b600080546102239061105d565b80601f016020809104026020016040519081016040528092919081815260200182805461024f9061105d565b801561029c5780601f106102715761010080835404028352916020019161029c565b820191906000526020600020905b81548152906001019060200180831161027f57829003601f168201915b505050505081565b600260009054906101000a900473ffffffffffffffffffffffffffffffffffffffff1681565b6000600560003373ffffffffffffffffffffffffffffffffffffffff1673ffffffffffffffffffffffffffffffffffffffff16815260200190815260200160002054905060008111610351576040517f08c379a000000000000000000000000000000000000000000000000000000000815260040161034890610e42565b60405180910390fd5b600360009054906101000a900473ffffffffffffffffffffffffffffffffffffffff1673ffffffffffffffffffffffffffffffffffffffff1663a9059cbb33836040518363ffffffff1660e01b81526004016103ae929190610d86565b602060405180830381600087803b1580156103c857600080fd5b505af11580156103dc573d6000803e3d6000fd5b505050506040513d601f19601f820116820180604052508101906104009190610bf5565b506000600560003373ffffffffffffffffffffffffffffffffffffffff1673ffffffffffffffffffffffffffffffffffffffff168152602001908152602001600020819055506000600760003373ffffffffffffffffffffffffffffffffffffffff1673ffffffffffffffffffffffffffffffffffffffff16815260200190815260200160002060006101000a81548160ff02191690831515021790555050565b60066020528060005260406000206000915054906101000a900460ff1681565b60076020528060005260406000206000915054906101000a900460ff1681565b60056020528060005260406000206000915090505481565b600160009054906101000a900473ffffffffffffffffffffffffffffffffffffffff1681565b600160009054906101000a900473ffffffffffffffffffffffffffffffffffffffff1673ffffffffffffffffffffffffffffffffffffffff163373ffffffffffffffffffffffffffffffffffffffff16146105af576040517f08c379a00000000000000000000000000000000000000000000000000000000081526004016105a690610e22565b60405180910390fd5b6000805b6004805490508110156106845760056000600483815481106105fe577f4e487b7100000000000000000000000000000000000000000000000000000000600052603260045260246000fd5b9060005260206000200160009054906101000a900473ffffffffffffffffffffffffffffffffffffffff1673ffffffffffffffffffffffffffffffffffffffff1673ffffffffffffffffffffffffffffffffffffffff168152602001908152602001600020548261066f9190610eb9565b9150808061067c9061108f565b9150506105b3565b5060005b600480549050811015610839576000600482815481106106d1577f4e487b7100000000000000000000000000000000000000000000000000000000600052603260045260246000fd5b9060005260206000200160009054906101000a900473ffffffffffffffffffffffffffffffffffffffff1690506000600560008373ffffffffffffffffffffffffffffffffffffffff1673ffffffffffffffffffffffffffffffffffffffff1681526020019081526020016000205490506000600a8286846107539190610f0f565b61075d9190610f40565b6107679190610f0f565b9050600082111561082357600260009054906101000a900473ffffffffffffffffffffffffffffffffffffffff1673ffffffffffffffffffffffffffffffffffffffff1663a9059cbb84836040518363ffffffff1660e01b81526004016107cf929190610d86565b602060405180830381600087803b1580156107e957600080fd5b505af11580156107fd573d6000803e3d6000fd5b505050506040513d601f19601f820116820180604052508101906108219190610bf5565b505b50505080806108319061108f565b915050610688565b5050565b600360009054906101000a900473ffffffffffffffffffffffffffffffffffffffff1681565b600081116108a6576040517f08c379a000000000000000000000000000000000000000000000000000000000815260040161089d90610e62565b60405180910390fd5b600360009054906101000a900473ffffffffffffffffffffffffffffffffffffffff1673ffffffffffffffffffffffffffffffffffffffff166323b872dd3330846040518463ffffffff1660e01b815260040161090593929190610d4f565b602060405180830381600087803b15801561091f57600080fd5b505af1158015610933573d6000803e3d6000fd5b505050506040513d601f19601f820116820180604052508101906109579190610bf5565b5080600560003373ffffffffffffffffffffffffffffffffffffffff1673ffffffffffffffffffffffffffffffffffffffff168152602001908152602001600020546109a39190610eb9565b600560003373ffffffffffffffffffffffffffffffffffffffff1673ffffffffffffffffffffffffffffffffffffffff16815260200190815260200160002081905550600660003373ffffffffffffffffffffffffffffffffffffffff1673ffffffffffffffffffffffffffffffffffffffff16815260200190815260200160002060009054906101000a900460ff16610a9b576004339080600181540180825580915050600190039060005260206000200160009091909190916101000a81548173ffffffffffffffffffffffffffffffffffffffff021916908373ffffffffffffffffffffffffffffffffffffffff1602179055505b6001600760003373ffffffffffffffffffffffffffffffffffffffff1673ffffffffffffffffffffffffffffffffffffffff16815260200190815260200160002060006101000a81548160ff0219169083151502179055506001600660003373ffffffffffffffffffffffffffffffffffffffff1673ffffffffffffffffffffffffffffffffffffffff16815260200190815260200160002060006101000a81548160ff02191690831515021790555050565b60048181548110610b5e57600080fd5b906000526020600020016000915054906101000a900473ffffffffffffffffffffffffffffffffffffffff1681565b600081359050610b9c816111f1565b92915050565b600081519050610bb181611208565b92915050565b600081359050610bc68161121f565b92915050565b600060208284031215610bde57600080fd5b6000610bec84828501610b8d565b91505092915050565b600060208284031215610c0757600080fd5b6000610c1584828501610ba2565b91505092915050565b600060208284031215610c3057600080fd5b6000610c3e84828501610bb7565b91505092915050565b610c5081610f9a565b82525050565b610c5f81610fac565b82525050565b610c6e81610fe2565b82525050565b610c7d81611006565b82525050565b6000610c8e82610e9d565b610c988185610ea8565b9350610ca881856020860161102a565b610cb181611165565b840191505092915050565b6000610cc9601883610ea8565b9150610cd482611176565b602082019050919050565b6000610cec601b83610ea8565b9150610cf78261119f565b602082019050919050565b6000610d0f601283610ea8565b9150610d1a826111c8565b602082019050919050565b610d2e81610fd8565b82525050565b6000602082019050610d496000830184610c47565b92915050565b6000606082019050610d646000830186610c47565b610d716020830185610c47565b610d7e6040830184610d25565b949350505050565b6000604082019050610d9b6000830185610c47565b610da86020830184610d25565b9392505050565b6000602082019050610dc46000830184610c56565b92915050565b6000602082019050610ddf6000830184610c65565b92915050565b6000602082019050610dfa6000830184610c74565b92915050565b60006020820190508181036000830152610e1a8184610c83565b905092915050565b60006020820190508181036000830152610e3b81610cbc565b9050919050565b60006020820190508181036000830152610e5b81610cdf565b9050919050565b60006020820190508181036000830152610e7b81610d02565b9050919050565b6000602082019050610e976000830184610d25565b92915050565b600081519050919050565b600082825260208201905092915050565b6000610ec482610fd8565b9150610ecf83610fd8565b9250827fffffffffffffffffffffffffffffffffffffffffffffffffffffffffffffffff03821115610f0457610f036110d8565b5b828201905092915050565b6000610f1a82610fd8565b9150610f2583610fd8565b925082610f3557610f34611107565b5b828204905092915050565b6000610f4b82610fd8565b9150610f5683610fd8565b9250817fffffffffffffffffffffffffffffffffffffffffffffffffffffffffffffffff0483118215151615610f8f57610f8e6110d8565b5b828202905092915050565b6000610fa582610fb8565b9050919050565b60008115159050919050565b600073ffffffffffffffffffffffffffffffffffffffff82169050919050565b6000819050919050565b6000610fed82610ff4565b9050919050565b6000610fff82610fb8565b9050919050565b600061101182611018565b9050919050565b600061102382610fb8565b9050919050565b60005b8381101561104857808201518184015260208101905061102d565b83811115611057576000848401525b50505050565b6000600282049050600182168061107557607f821691505b6020821081141561108957611088611136565b5b50919050565b600061109a82610fd8565b91507fffffffffffffffffffffffffffffffffffffffffffffffffffffffffffffffff8214156110cd576110cc6110d8565b5b600182019050919050565b7f4e487b7100000000000000000000000000000000000000000000000000000000600052601160045260246000fd5b7f4e487b7100000000000000000000000000000000000000000000000000000000600052601260045260246000fd5b7f4e487b7100000000000000000000000000000000000000000000000000000000600052602260045260246000fd5b6000601f19601f8301169050919050565b7f63616c6c6572206d75737420626520746865206f776e65720000000000000000600082015250565b7f7374616b696e672062616c616e63652063616e6e6f7420626520300000000000600082015250565b7f616d6f756e742063616e6e6f7420626520300000000000000000000000000000600082015250565b6111fa81610f9a565b811461120557600080fd5b50565b61121181610fac565b811461121c57600080fd5b50565b61122881610fd8565b811461123357600080fd5b5056fea26469706673582212202ca2a5750b53c3a8d75f9ee3cca38dc3ffece58348c86273a4981219276ad8a864736f6c63430008040033",
  "immutableReferences": {},
  "source": "// SPDX-License-Identifier: GPL-3.0\n\npragma solidity ^0.8.4;\n\nimport \"./AmogusToken.sol\";\nimport \"./StableToken.sol\";\n\ncontract YieldFarm {\n    string public name = \"Dapp Token Farm\";\n    address public owner;\n    AmogusToken public amogusToken;\n    StableToken public stableToken;\n\n    address[] public deposers;\n    mapping(address => uint) public deposingBalance;\n    mapping(address => bool) public hasDeposed;\n    mapping(address => bool) public isDeposing;\n\n    constructor(AmogusToken _amogusToken, StableToken _stableToken){\n        amogusToken = _amogusToken;\n        stableToken = _stableToken;\n        owner = msg.sender;\n    }\n\n    function deposeTokens(uint _amount) public {\n        // Require amount greater than 0\n        require(_amount > 0, \"amount cannot be 0\");\n\n        // Trasnfer Mock Dai tokens to this contract for staking\n        stableToken.transferFrom(msg.sender, address(this), _amount);\n\n        // Update staking balance\n        deposingBalance[msg.sender] = deposingBalance[msg.sender] + _amount;\n\n        // Add user to deposers array *only* if they haven't staked already\n        if(!hasDeposed[msg.sender]) {\n            deposers.push(msg.sender);\n        }\n\n        // Update staking status\n        isDeposing[msg.sender] = true;\n        hasDeposed[msg.sender] = true;\n    }\n\n    // Unstaking Tokens (Withdraw)\n    function undeposeTokens() public {\n        // Fetch staking balance\n        uint balance = deposingBalance[msg.sender];\n\n        // Require amount greater than 0\n        require(balance > 0, \"staking balance cannot be 0\");\n\n        // Transfer Mock Dai tokens to this contract for staking\n        stableToken.transfer(msg.sender, balance);\n\n        // Reset staking balance\n        deposingBalance[msg.sender] = 0;\n\n        // Update staking status\n        isDeposing[msg.sender] = false;\n    }\n\n    // Issuing Tokens \n        function issueToken() public {\n            //only owner can call this function \n            require(msg.sender == owner, \"caller must be the owner\"); \n\n            uint total_deposited_balance = 0;\n\n            //calculate total amount of deoposited balance of all users together \n            for(uint i=0; i < deposers.length; i++) {\n                total_deposited_balance = total_deposited_balance + deposingBalance[deposers[i]]; \n            }\n\n            // send intrest tokens (amonugsTokens) to the users that deposited stable tokens\n            for (uint i = 0; i < deposers.length; i++){\n                address recipient = deposers[i]; \n                uint balance = deposingBalance[recipient]; \n\n                //calculate intrest to send to the different users \n                uint intrest = ((balance / total_deposited_balance) * balance ) / 10; \n\n                if(balance >0){\n                amogusToken.transfer(recipient, intrest);\n                }\n            }\n        }\n}\n",
  "sourcePath": "/Users/Can_Inan/defi_tutorial/src/contracts/YieldFarm.sol",
  "compiler": {
    "name": "solc",
    "version": "0.8.4+commit.c7e474f2.Emscripten.clang"
  },
  "schemaVersion": "3.4.0",
  "updatedAt": "2021-05-19T17:38:43.100Z",
  "networkType": "ethereum",
  "devdoc": {
    "kind": "dev",
    "methods": {},
    "version": 1
  },
  "userdoc": {
    "kind": "user",
    "methods": {},
    "version": 1
  }
}