{
  "contractName": "YieldFarming",
  "abi": [
    {
      "inputs": [
        {
          "internalType": "contract StableToken",
          "name": "_stableToken",
          "type": "address"
        },
        {
          "internalType": "contract AmongusToken",
          "name": "_amongusToken",
          "type": "address"
        }
      ],
      "stateMutability": "nonpayable",
      "type": "constructor"
    },
    {
      "inputs": [],
      "name": "amongusToken",
      "outputs": [
        {
          "internalType": "contract AmongusToken",
          "name": "",
          "type": "address"
        }
      ],
      "stateMutability": "view",
      "type": "function"
    },
    {
      "inputs": [
        {
          "internalType": "uint256",
          "name": "",
          "type": "uint256"
        }
      ],
      "name": "deposers",
      "outputs": [
        {
          "internalType": "address",
          "name": "",
          "type": "address"
        }
      ],
      "stateMutability": "view",
      "type": "function"
    },
    {
      "inputs": [
        {
          "internalType": "address",
          "name": "",
          "type": "address"
        }
      ],
      "name": "deposingBalance",
      "outputs": [
        {
          "internalType": "uint256",
          "name": "",
          "type": "uint256"
        }
      ],
      "stateMutability": "view",
      "type": "function"
    },
    {
      "inputs": [
        {
          "internalType": "address",
          "name": "",
          "type": "address"
        }
      ],
      "name": "hasDeposited",
      "outputs": [
        {
          "internalType": "bool",
          "name": "",
          "type": "bool"
        }
      ],
      "stateMutability": "view",
      "type": "function"
    },
    {
      "inputs": [
        {
          "internalType": "address",
          "name": "",
          "type": "address"
        }
      ],
      "name": "isDeposing",
      "outputs": [
        {
          "internalType": "bool",
          "name": "",
          "type": "bool"
        }
      ],
      "stateMutability": "view",
      "type": "function"
    },
    {
      "inputs": [],
      "name": "name",
      "outputs": [
        {
          "internalType": "string",
          "name": "",
          "type": "string"
        }
      ],
      "stateMutability": "view",
      "type": "function"
    },
    {
      "inputs": [],
      "name": "owner",
      "outputs": [
        {
          "internalType": "address",
          "name": "",
          "type": "address"
        }
      ],
      "stateMutability": "view",
      "type": "function"
    },
    {
      "inputs": [],
      "name": "stableToken",
      "outputs": [
        {
          "internalType": "contract StableToken",
          "name": "",
          "type": "address"
        }
      ],
      "stateMutability": "view",
      "type": "function"
    },
    {
      "inputs": [
        {
          "internalType": "uint256",
          "name": "_amount",
          "type": "uint256"
        }
      ],
      "name": "deposeTokens",
      "outputs": [],
      "stateMutability": "nonpayable",
      "type": "function"
    },
    {
      "inputs": [],
      "name": "undeposeTokens",
      "outputs": [],
      "stateMutability": "nonpayable",
      "type": "function"
    },
    {
      "inputs": [],
      "name": "issueToken",
      "outputs": [],
      "stateMutability": "nonpayable",
      "type": "function"
    }
  ],
  "bytecode": "0x60806040526040518060400160405280600f81526020017f44617070204661726d20546f6b656e0000000000000000000000000000000000815250600090805190602001906200005192919062000150565b503480156200005f57600080fd5b50604051620016063803806200160683398181016040528101906200008591906200022e565b81600260006101000a81548173ffffffffffffffffffffffffffffffffffffffff021916908373ffffffffffffffffffffffffffffffffffffffff16021790555080600360006101000a81548173ffffffffffffffffffffffffffffffffffffffff021916908373ffffffffffffffffffffffffffffffffffffffff16021790555033600160006101000a81548173ffffffffffffffffffffffffffffffffffffffff021916908373ffffffffffffffffffffffffffffffffffffffff160217905550505062000364565b8280546200015e90620002cb565b90600052602060002090601f016020900481019282620001825760008555620001ce565b82601f106200019d57805160ff1916838001178555620001ce565b82800160010185558215620001ce579182015b82811115620001cd578251825591602001919060010190620001b0565b5b509050620001dd9190620001e1565b5090565b5b80821115620001fc576000816000905550600101620001e2565b5090565b600081519050620002118162000330565b92915050565b60008151905062000228816200034a565b92915050565b600080604083850312156200024257600080fd5b6000620002528582860162000217565b9250506020620002658582860162000200565b9150509250929050565b60006200027c82620002ab565b9050919050565b600062000290826200026f565b9050919050565b6000620002a4826200026f565b9050919050565b600073ffffffffffffffffffffffffffffffffffffffff82169050919050565b60006002820490506001821680620002e457607f821691505b60208210811415620002fb57620002fa62000301565b5b50919050565b7f4e487b7100000000000000000000000000000000000000000000000000000000600052602260045260246000fd5b6200033b8162000283565b81146200034757600080fd5b50565b620003558162000297565b81146200036157600080fd5b50565b61129280620003746000396000f3fe608060405234801561001057600080fd5b50600436106100a95760003560e01c80638da5cb5b116100715780638da5cb5b14610154578063a1ee8c7814610172578063a9d75b2b1461017c578063ce763cd01461019a578063d540351f146101b6578063f2c16e6f146101e6576100a9565b806306fdde03146100ae5780631926e078146100cc578063400f5216146100d657806374becfbd146100f45780637c80668514610124575b600080fd5b6100b6610216565b6040516100c39190610e00565b60405180910390f35b6100d46102a4565b005b6100de61047b565b6040516100eb9190610dca565b60405180910390f35b61010e60048036038101906101099190610bcc565b6104a1565b60405161011b9190610daf565b60405180910390f35b61013e60048036038101906101399190610bcc565b6104c1565b60405161014b9190610e82565b60405180910390f35b61015c6104d9565b6040516101699190610d34565b60405180910390f35b61017a6104ff565b005b61018461081d565b6040516101919190610de5565b60405180910390f35b6101b460048036038101906101af9190610c1e565b610843565b005b6101d060048036038101906101cb9190610c1e565b610b2e565b6040516101dd9190610d34565b60405180910390f35b61020060048036038101906101fb9190610bcc565b610b6d565b60405161020d9190610daf565b60405180910390f35b600080546102239061105d565b80601f016020809104026020016040519081016040528092919081815260200182805461024f9061105d565b801561029c5780601f106102715761010080835404028352916020019161029c565b820191906000526020600020905b81548152906001019060200180831161027f57829003601f168201915b505050505081565b6000600560003373ffffffffffffffffffffffffffffffffffffffff1673ffffffffffffffffffffffffffffffffffffffff1681526020019081526020016000205490506000811161032b576040517f08c379a000000000000000000000000000000000000000000000000000000000815260040161032290610e42565b60405180910390fd5b600260009054906101000a900473ffffffffffffffffffffffffffffffffffffffff1673ffffffffffffffffffffffffffffffffffffffff1663a9059cbb33836040518363ffffffff1660e01b8152600401610388929190610d86565b602060405180830381600087803b1580156103a257600080fd5b505af11580156103b6573d6000803e3d6000fd5b505050506040513d601f19601f820116820180604052508101906103da9190610bf5565b506000600560003373ffffffffffffffffffffffffffffffffffffffff1673ffffffffffffffffffffffffffffffffffffffff168152602001908152602001600020819055506000600760003373ffffffffffffffffffffffffffffffffffffffff1673ffffffffffffffffffffffffffffffffffffffff16815260200190815260200160002060006101000a81548160ff02191690831515021790555050565b600360009054906101000a900473ffffffffffffffffffffffffffffffffffffffff1681565b60076020528060005260406000206000915054906101000a900460ff1681565b60056020528060005260406000206000915090505481565b600160009054906101000a900473ffffffffffffffffffffffffffffffffffffffff1681565b600160009054906101000a900473ffffffffffffffffffffffffffffffffffffffff1673ffffffffffffffffffffffffffffffffffffffff163373ffffffffffffffffffffffffffffffffffffffff161461058f576040517f08c379a000000000000000000000000000000000000000000000000000000000815260040161058690610e22565b60405180910390fd5b6000805b6004805490508110156106645760056000600483815481106105de577f4e487b7100000000000000000000000000000000000000000000000000000000600052603260045260246000fd5b9060005260206000200160009054906101000a900473ffffffffffffffffffffffffffffffffffffffff1673ffffffffffffffffffffffffffffffffffffffff1673ffffffffffffffffffffffffffffffffffffffff168152602001908152602001600020548261064f9190610eb9565b9150808061065c9061108f565b915050610593565b5060005b600480549050811015610819576000600482815481106106b1577f4e487b7100000000000000000000000000000000000000000000000000000000600052603260045260246000fd5b9060005260206000200160009054906101000a900473ffffffffffffffffffffffffffffffffffffffff1690506000600560008373ffffffffffffffffffffffffffffffffffffffff1673ffffffffffffffffffffffffffffffffffffffff1681526020019081526020016000205490506000600a8286846107339190610f0f565b61073d9190610f40565b6107479190610f0f565b9050600082111561080357600360009054906101000a900473ffffffffffffffffffffffffffffffffffffffff1673ffffffffffffffffffffffffffffffffffffffff1663a9059cbb84836040518363ffffffff1660e01b81526004016107af929190610d86565b602060405180830381600087803b1580156107c957600080fd5b505af11580156107dd573d6000803e3d6000fd5b505050506040513d601f19601f820116820180604052508101906108019190610bf5565b505b50505080806108119061108f565b915050610668565b5050565b600260009054906101000a900473ffffffffffffffffffffffffffffffffffffffff1681565b60008111610886576040517f08c379a000000000000000000000000000000000000000000000000000000000815260040161087d90610e62565b60405180910390fd5b600260009054906101000a900473ffffffffffffffffffffffffffffffffffffffff1673ffffffffffffffffffffffffffffffffffffffff166323b872dd3330846040518463ffffffff1660e01b81526004016108e593929190610d4f565b602060405180830381600087803b1580156108ff57600080fd5b505af1158015610913573d6000803e3d6000fd5b505050506040513d601f19601f820116820180604052508101906109379190610bf5565b5080600560003373ffffffffffffffffffffffffffffffffffffffff1673ffffffffffffffffffffffffffffffffffffffff168152602001908152602001600020546109839190610eb9565b600560003373ffffffffffffffffffffffffffffffffffffffff1673ffffffffffffffffffffffffffffffffffffffff16815260200190815260200160002081905550600660003373ffffffffffffffffffffffffffffffffffffffff1673ffffffffffffffffffffffffffffffffffffffff16815260200190815260200160002060009054906101000a900460ff16610a7b576004339080600181540180825580915050600190039060005260206000200160009091909190916101000a81548173ffffffffffffffffffffffffffffffffffffffff021916908373ffffffffffffffffffffffffffffffffffffffff1602179055505b6001600760003373ffffffffffffffffffffffffffffffffffffffff1673ffffffffffffffffffffffffffffffffffffffff16815260200190815260200160002060006101000a81548160ff0219169083151502179055506001600660003373ffffffffffffffffffffffffffffffffffffffff1673ffffffffffffffffffffffffffffffffffffffff16815260200190815260200160002060006101000a81548160ff02191690831515021790555050565b60048181548110610b3e57600080fd5b906000526020600020016000915054906101000a900473ffffffffffffffffffffffffffffffffffffffff1681565b60066020528060005260406000206000915054906101000a900460ff1681565b600081359050610b9c81611217565b92915050565b600081519050610bb18161122e565b92915050565b600081359050610bc681611245565b92915050565b600060208284031215610bde57600080fd5b6000610bec84828501610b8d565b91505092915050565b600060208284031215610c0757600080fd5b6000610c1584828501610ba2565b91505092915050565b600060208284031215610c3057600080fd5b6000610c3e84828501610bb7565b91505092915050565b610c5081610f9a565b82525050565b610c5f81610fac565b82525050565b610c6e81610fe2565b82525050565b610c7d81611006565b82525050565b6000610c8e82610e9d565b610c988185610ea8565b9350610ca881856020860161102a565b610cb181611165565b840191505092915050565b6000610cc9601883610ea8565b9150610cd482611176565b602082019050919050565b6000610cec602183610ea8565b9150610cf78261119f565b604082019050919050565b6000610d0f601283610ea8565b9150610d1a826111ee565b602082019050919050565b610d2e81610fd8565b82525050565b6000602082019050610d496000830184610c47565b92915050565b6000606082019050610d646000830186610c47565b610d716020830185610c47565b610d7e6040830184610d25565b949350505050565b6000604082019050610d9b6000830185610c47565b610da86020830184610d25565b9392505050565b6000602082019050610dc46000830184610c56565b92915050565b6000602082019050610ddf6000830184610c65565b92915050565b6000602082019050610dfa6000830184610c74565b92915050565b60006020820190508181036000830152610e1a8184610c83565b905092915050565b60006020820190508181036000830152610e3b81610cbc565b9050919050565b60006020820190508181036000830152610e5b81610cdf565b9050919050565b60006020820190508181036000830152610e7b81610d02565b9050919050565b6000602082019050610e976000830184610d25565b92915050565b600081519050919050565b600082825260208201905092915050565b6000610ec482610fd8565b9150610ecf83610fd8565b9250827fffffffffffffffffffffffffffffffffffffffffffffffffffffffffffffffff03821115610f0457610f036110d8565b5b828201905092915050565b6000610f1a82610fd8565b9150610f2583610fd8565b925082610f3557610f34611107565b5b828204905092915050565b6000610f4b82610fd8565b9150610f5683610fd8565b9250817fffffffffffffffffffffffffffffffffffffffffffffffffffffffffffffffff0483118215151615610f8f57610f8e6110d8565b5b828202905092915050565b6000610fa582610fb8565b9050919050565b60008115159050919050565b600073ffffffffffffffffffffffffffffffffffffffff82169050919050565b6000819050919050565b6000610fed82610ff4565b9050919050565b6000610fff82610fb8565b9050919050565b600061101182611018565b9050919050565b600061102382610fb8565b9050919050565b60005b8381101561104857808201518184015260208101905061102d565b83811115611057576000848401525b50505050565b6000600282049050600182168061107557607f821691505b6020821081141561108957611088611136565b5b50919050565b600061109a82610fd8565b91507fffffffffffffffffffffffffffffffffffffffffffffffffffffffffffffffff8214156110cd576110cc6110d8565b5b600182019050919050565b7f4e487b7100000000000000000000000000000000000000000000000000000000600052601160045260246000fd5b7f4e487b7100000000000000000000000000000000000000000000000000000000600052601260045260246000fd5b7f4e487b7100000000000000000000000000000000000000000000000000000000600052602260045260246000fd5b6000601f19601f8301169050919050565b7f63616c6c6572206d75737420626520746865206f776e65720000000000000000600082015250565b7f4b696e6461205355532c20776865726520697320796f75722062616c616e636560008201527f3f00000000000000000000000000000000000000000000000000000000000000602082015250565b7f616d6f756e742063616e6e6f7420626520300000000000000000000000000000600082015250565b61122081610f9a565b811461122b57600080fd5b50565b61123781610fac565b811461124257600080fd5b50565b61124e81610fd8565b811461125957600080fd5b5056fea264697066735822122081a46ad6856710a5a21bf3a98f957d8dd5e052163afd1dd48d0377394fff08c664736f6c63430008040033",
  "immutableReferences": {},
  "source": "// SPDX-License-Identifier: GPL-3.0\n\npragma solidity ^0.8.4;\n\n\nimport \"./AmongusToken.sol\";\nimport \"./StableToken.sol\";\n\n\ncontract YieldFarming {\n        \n        string public name = \"Dapp Farm Token\"; \n        address public owner;\n\n        StableToken public stableToken; \n        AmongusToken public amongusToken;\n\n        address[] public deposers;\n        mapping(address => uint) public deposingBalance;\n        mapping(address => bool) public hasDeposited;\n        mapping(address => bool) public isDeposing;\n\n        constructor(StableToken _stableToken, AmongusToken _amongusToken) {\n            stableToken = _stableToken; \n            amongusToken = _amongusToken;\n            owner = msg.sender;\n        }\n\n        function deposeTokens(uint _amount) public{\n            // To depose, you need to depose more than 0\n\n            require(_amount > 0, \"amount cannot be 0\");\n\n            // Trasnfer stable tokens to this contract for deposing\n            stableToken.transferFrom(msg.sender, address(this), _amount);\n\n            // Update deposing balance\n            deposingBalance[msg.sender] = deposingBalance[msg.sender] + _amount;\n\n            // Add user to deposers array *only* if they haven't deposed already\n            if(!hasDeposited[msg.sender]) {\n                deposers.push(msg.sender);\n            }\n\n            // Update depose status\n            isDeposing[msg.sender] = true;\n            hasDeposited[msg.sender] = true;\n        }\n\n         // undepose Tokens (Withdraw)\n        function undeposeTokens() public {\n            // Fetch staking balance\n            uint user_balance = deposingBalance[msg.sender];\n           \n            // Can't have less than 0 staked tokens\n            require(user_balance > 0, \"Kinda SUS, where is your balance?\");\n\n            // Transfer stable tokens to this contract for staking\n            stableToken.transfer(msg.sender, user_balance);\n\n            // Reset staking balance\n            deposingBalance[msg.sender] = 0;\n\n            // Update staking status\n            isDeposing[msg.sender] = false;\n        }\n\n\n        // Issuing Tokens \n        function issueToken() public {\n            //only owner can call this function \n            require(msg.sender == owner, \"caller must be the owner\"); \n\n            uint total_deposited_balance = 0;\n\n            //calculate total amount of deoposited balance of all users together \n            for(uint i=0; i < deposers.length; i++) {\n                total_deposited_balance = total_deposited_balance + deposingBalance[deposers[i]]; \n            }\n\n            // send intrest tokens (amonugsTokens) to the users that deposited stable tokens\n            for (uint i = 0; i < deposers.length; i++){\n                address recipient = deposers[i]; \n                uint balance = deposingBalance[recipient]; \n\n                //calculate intrest to send to the different users \n                uint intrest = ((balance / total_deposited_balance) * balance ) / 10; \n\n                if(balance >0){\n                amongusToken.transfer(recipient, intrest);\n                }\n            }\n        }\n}",
  "sourcePath": "/Users/Can_Inan/AmogusFinance/src/contracts/YieldFarming.sol",
  "compiler": {
    "name": "solc",
    "version": "0.8.4+commit.c7e474f2.Emscripten.clang"
  },
  "schemaVersion": "3.4.0",
  "updatedAt": "2021-05-18T20:33:12.144Z",
  "networkType": "ethereum",
  "devdoc": {
    "kind": "dev",
    "methods": {},
    "version": 1
  },
  "userdoc": {
    "kind": "user",
    "methods": {},
    "version": 1
  }
}