{
  "contractName": "YieldFarming",
  "abi": [
    {
      "inputs": [
        {
          "internalType": "contract StableToken",
          "name": "_stableToken",
          "type": "address"
        },
        {
          "internalType": "contract AmongusToken",
          "name": "_amongusToken",
          "type": "address"
        }
      ],
      "stateMutability": "nonpayable",
      "type": "constructor"
    },
    {
      "inputs": [],
      "name": "amongusToken",
      "outputs": [
        {
          "internalType": "contract AmongusToken",
          "name": "",
          "type": "address"
        }
      ],
      "stateMutability": "view",
      "type": "function"
    },
    {
      "inputs": [
        {
          "internalType": "uint256",
          "name": "",
          "type": "uint256"
        }
      ],
      "name": "deposers",
      "outputs": [
        {
          "internalType": "address",
          "name": "",
          "type": "address"
        }
      ],
      "stateMutability": "view",
      "type": "function"
    },
    {
      "inputs": [
        {
          "internalType": "address",
          "name": "",
          "type": "address"
        }
      ],
      "name": "deposingBalance",
      "outputs": [
        {
          "internalType": "uint256",
          "name": "",
          "type": "uint256"
        }
      ],
      "stateMutability": "view",
      "type": "function"
    },
    {
      "inputs": [
        {
          "internalType": "address",
          "name": "",
          "type": "address"
        }
      ],
      "name": "hasDeposited",
      "outputs": [
        {
          "internalType": "bool",
          "name": "",
          "type": "bool"
        }
      ],
      "stateMutability": "view",
      "type": "function"
    },
    {
      "inputs": [
        {
          "internalType": "address",
          "name": "",
          "type": "address"
        }
      ],
      "name": "isDeposing",
      "outputs": [
        {
          "internalType": "bool",
          "name": "",
          "type": "bool"
        }
      ],
      "stateMutability": "view",
      "type": "function"
    },
    {
      "inputs": [],
      "name": "name",
      "outputs": [
        {
          "internalType": "string",
          "name": "",
          "type": "string"
        }
      ],
      "stateMutability": "view",
      "type": "function"
    },
    {
      "inputs": [],
      "name": "owner",
      "outputs": [
        {
          "internalType": "address",
          "name": "",
          "type": "address"
        }
      ],
      "stateMutability": "view",
      "type": "function"
    },
    {
      "inputs": [],
      "name": "stableToken",
      "outputs": [
        {
          "internalType": "contract StableToken",
          "name": "",
          "type": "address"
        }
      ],
      "stateMutability": "view",
      "type": "function"
    },
    {
      "inputs": [
        {
          "internalType": "uint256",
          "name": "_amount",
          "type": "uint256"
        }
      ],
      "name": "deposeTokens",
      "outputs": [],
      "stateMutability": "nonpayable",
      "type": "function"
    },
    {
      "inputs": [],
      "name": "undeposeTokens",
      "outputs": [],
      "stateMutability": "nonpayable",
      "type": "function"
    },
    {
      "inputs": [],
      "name": "issueToken",
      "outputs": [],
      "stateMutability": "nonpayable",
      "type": "function"
    }
  ],
  "bytecode": "0x60806040526040518060400160405280600f81526020017f44617070204661726d20546f6b656e0000000000000000000000000000000000815250600090805190602001906200005192919062000150565b503480156200005f57600080fd5b50604051620015a1380380620015a183398181016040528101906200008591906200022e565b81600260006101000a81548173ffffffffffffffffffffffffffffffffffffffff021916908373ffffffffffffffffffffffffffffffffffffffff16021790555080600360006101000a81548173ffffffffffffffffffffffffffffffffffffffff021916908373ffffffffffffffffffffffffffffffffffffffff16021790555033600160006101000a81548173ffffffffffffffffffffffffffffffffffffffff021916908373ffffffffffffffffffffffffffffffffffffffff160217905550505062000364565b8280546200015e90620002cb565b90600052602060002090601f016020900481019282620001825760008555620001ce565b82601f106200019d57805160ff1916838001178555620001ce565b82800160010185558215620001ce579182015b82811115620001cd578251825591602001919060010190620001b0565b5b509050620001dd9190620001e1565b5090565b5b80821115620001fc576000816000905550600101620001e2565b5090565b600081519050620002118162000330565b92915050565b60008151905062000228816200034a565b92915050565b600080604083850312156200024257600080fd5b6000620002528582860162000217565b9250506020620002658582860162000200565b9150509250929050565b60006200027c82620002ab565b9050919050565b600062000290826200026f565b9050919050565b6000620002a4826200026f565b9050919050565b600073ffffffffffffffffffffffffffffffffffffffff82169050919050565b60006002820490506001821680620002e457607f821691505b60208210811415620002fb57620002fa62000301565b5b50919050565b7f4e487b7100000000000000000000000000000000000000000000000000000000600052602260045260246000fd5b6200033b8162000283565b81146200034757600080fd5b50565b620003558162000297565b81146200036157600080fd5b50565b61122d80620003746000396000f3fe608060405234801561001057600080fd5b50600436106100a95760003560e01c80638da5cb5b116100715780638da5cb5b14610154578063a1ee8c7814610172578063a9d75b2b1461017c578063ce763cd01461019a578063d540351f146101b6578063f2c16e6f146101e6576100a9565b806306fdde03146100ae5780631926e078146100cc578063400f5216146100d657806374becfbd146100f45780637c80668514610124575b600080fd5b6100b6610216565b6040516100c39190610df5565b60405180910390f35b6100d46102a4565b005b6100de61047b565b6040516100eb9190610dbf565b60405180910390f35b61010e60048036038101906101099190610bc1565b6104a1565b60405161011b9190610da4565b60405180910390f35b61013e60048036038101906101399190610bc1565b6104c1565b60405161014b9190610e77565b60405180910390f35b61015c6104d9565b6040516101699190610d29565b60405180910390f35b61017a6104ff565b005b610184610812565b6040516101919190610dda565b60405180910390f35b6101b460048036038101906101af9190610c13565b610838565b005b6101d060048036038101906101cb9190610c13565b610b23565b6040516101dd9190610d29565b60405180910390f35b61020060048036038101906101fb9190610bc1565b610b62565b60405161020d9190610da4565b60405180910390f35b6000805461022390610ff8565b80601f016020809104026020016040519081016040528092919081815260200182805461024f90610ff8565b801561029c5780601f106102715761010080835404028352916020019161029c565b820191906000526020600020905b81548152906001019060200180831161027f57829003601f168201915b505050505081565b6000600560003373ffffffffffffffffffffffffffffffffffffffff1673ffffffffffffffffffffffffffffffffffffffff1681526020019081526020016000205490506000811161032b576040517f08c379a000000000000000000000000000000000000000000000000000000000815260040161032290610e37565b60405180910390fd5b600260009054906101000a900473ffffffffffffffffffffffffffffffffffffffff1673ffffffffffffffffffffffffffffffffffffffff1663a9059cbb33836040518363ffffffff1660e01b8152600401610388929190610d7b565b602060405180830381600087803b1580156103a257600080fd5b505af11580156103b6573d6000803e3d6000fd5b505050506040513d601f19601f820116820180604052508101906103da9190610bea565b506000600560003373ffffffffffffffffffffffffffffffffffffffff1673ffffffffffffffffffffffffffffffffffffffff168152602001908152602001600020819055506000600760003373ffffffffffffffffffffffffffffffffffffffff1673ffffffffffffffffffffffffffffffffffffffff16815260200190815260200160002060006101000a81548160ff02191690831515021790555050565b600360009054906101000a900473ffffffffffffffffffffffffffffffffffffffff1681565b60076020528060005260406000206000915054906101000a900460ff1681565b60056020528060005260406000206000915090505481565b600160009054906101000a900473ffffffffffffffffffffffffffffffffffffffff1681565b600160009054906101000a900473ffffffffffffffffffffffffffffffffffffffff1673ffffffffffffffffffffffffffffffffffffffff163373ffffffffffffffffffffffffffffffffffffffff161461058f576040517f08c379a000000000000000000000000000000000000000000000000000000000815260040161058690610e17565b60405180910390fd5b6000805b6004805490508110156106645760056000600483815481106105de577f4e487b7100000000000000000000000000000000000000000000000000000000600052603260045260246000fd5b9060005260206000200160009054906101000a900473ffffffffffffffffffffffffffffffffffffffff1673ffffffffffffffffffffffffffffffffffffffff1673ffffffffffffffffffffffffffffffffffffffff168152602001908152602001600020548261064f9190610eae565b9150808061065c9061102a565b915050610593565b5060005b60048054905081101561080e576000600482815481106106b1577f4e487b7100000000000000000000000000000000000000000000000000000000600052603260045260246000fd5b9060005260206000200160009054906101000a900473ffffffffffffffffffffffffffffffffffffffff1690506000600560008373ffffffffffffffffffffffffffffffffffffffff1673ffffffffffffffffffffffffffffffffffffffff1681526020019081526020016000205490506000600a85836107329190610f04565b61073c9190610f04565b905060008211156107f857600360009054906101000a900473ffffffffffffffffffffffffffffffffffffffff1673ffffffffffffffffffffffffffffffffffffffff1663a9059cbb84836040518363ffffffff1660e01b81526004016107a4929190610d7b565b602060405180830381600087803b1580156107be57600080fd5b505af11580156107d2573d6000803e3d6000fd5b505050506040513d601f19601f820116820180604052508101906107f69190610bea565b505b50505080806108069061102a565b915050610668565b5050565b600260009054906101000a900473ffffffffffffffffffffffffffffffffffffffff1681565b6000811161087b576040517f08c379a000000000000000000000000000000000000000000000000000000000815260040161087290610e57565b60405180910390fd5b600260009054906101000a900473ffffffffffffffffffffffffffffffffffffffff1673ffffffffffffffffffffffffffffffffffffffff166323b872dd3330846040518463ffffffff1660e01b81526004016108da93929190610d44565b602060405180830381600087803b1580156108f457600080fd5b505af1158015610908573d6000803e3d6000fd5b505050506040513d601f19601f8201168201806040525081019061092c9190610bea565b5080600560003373ffffffffffffffffffffffffffffffffffffffff1673ffffffffffffffffffffffffffffffffffffffff168152602001908152602001600020546109789190610eae565b600560003373ffffffffffffffffffffffffffffffffffffffff1673ffffffffffffffffffffffffffffffffffffffff16815260200190815260200160002081905550600660003373ffffffffffffffffffffffffffffffffffffffff1673ffffffffffffffffffffffffffffffffffffffff16815260200190815260200160002060009054906101000a900460ff16610a70576004339080600181540180825580915050600190039060005260206000200160009091909190916101000a81548173ffffffffffffffffffffffffffffffffffffffff021916908373ffffffffffffffffffffffffffffffffffffffff1602179055505b6001600760003373ffffffffffffffffffffffffffffffffffffffff1673ffffffffffffffffffffffffffffffffffffffff16815260200190815260200160002060006101000a81548160ff0219169083151502179055506001600660003373ffffffffffffffffffffffffffffffffffffffff1673ffffffffffffffffffffffffffffffffffffffff16815260200190815260200160002060006101000a81548160ff02191690831515021790555050565b60048181548110610b3357600080fd5b906000526020600020016000915054906101000a900473ffffffffffffffffffffffffffffffffffffffff1681565b60066020528060005260406000206000915054906101000a900460ff1681565b600081359050610b91816111b2565b92915050565b600081519050610ba6816111c9565b92915050565b600081359050610bbb816111e0565b92915050565b600060208284031215610bd357600080fd5b6000610be184828501610b82565b91505092915050565b600060208284031215610bfc57600080fd5b6000610c0a84828501610b97565b91505092915050565b600060208284031215610c2557600080fd5b6000610c3384828501610bac565b91505092915050565b610c4581610f35565b82525050565b610c5481610f47565b82525050565b610c6381610f7d565b82525050565b610c7281610fa1565b82525050565b6000610c8382610e92565b610c8d8185610e9d565b9350610c9d818560208601610fc5565b610ca681611100565b840191505092915050565b6000610cbe601883610e9d565b9150610cc982611111565b602082019050919050565b6000610ce1602183610e9d565b9150610cec8261113a565b604082019050919050565b6000610d04601283610e9d565b9150610d0f82611189565b602082019050919050565b610d2381610f73565b82525050565b6000602082019050610d3e6000830184610c3c565b92915050565b6000606082019050610d596000830186610c3c565b610d666020830185610c3c565b610d736040830184610d1a565b949350505050565b6000604082019050610d906000830185610c3c565b610d9d6020830184610d1a565b9392505050565b6000602082019050610db96000830184610c4b565b92915050565b6000602082019050610dd46000830184610c5a565b92915050565b6000602082019050610def6000830184610c69565b92915050565b60006020820190508181036000830152610e0f8184610c78565b905092915050565b60006020820190508181036000830152610e3081610cb1565b9050919050565b60006020820190508181036000830152610e5081610cd4565b9050919050565b60006020820190508181036000830152610e7081610cf7565b9050919050565b6000602082019050610e8c6000830184610d1a565b92915050565b600081519050919050565b600082825260208201905092915050565b6000610eb982610f73565b9150610ec483610f73565b9250827fffffffffffffffffffffffffffffffffffffffffffffffffffffffffffffffff03821115610ef957610ef8611073565b5b828201905092915050565b6000610f0f82610f73565b9150610f1a83610f73565b925082610f2a57610f296110a2565b5b828204905092915050565b6000610f4082610f53565b9050919050565b60008115159050919050565b600073ffffffffffffffffffffffffffffffffffffffff82169050919050565b6000819050919050565b6000610f8882610f8f565b9050919050565b6000610f9a82610f53565b9050919050565b6000610fac82610fb3565b9050919050565b6000610fbe82610f53565b9050919050565b60005b83811015610fe3578082015181840152602081019050610fc8565b83811115610ff2576000848401525b50505050565b6000600282049050600182168061101057607f821691505b60208210811415611024576110236110d1565b5b50919050565b600061103582610f73565b91507fffffffffffffffffffffffffffffffffffffffffffffffffffffffffffffffff82141561106857611067611073565b5b600182019050919050565b7f4e487b7100000000000000000000000000000000000000000000000000000000600052601160045260246000fd5b7f4e487b7100000000000000000000000000000000000000000000000000000000600052601260045260246000fd5b7f4e487b7100000000000000000000000000000000000000000000000000000000600052602260045260246000fd5b6000601f19601f8301169050919050565b7f63616c6c6572206d75737420626520746865206f776e65720000000000000000600082015250565b7f4b696e6461205355532c20776865726520697320796f75722062616c616e636560008201527f3f00000000000000000000000000000000000000000000000000000000000000602082015250565b7f616d6f756e742063616e6e6f7420626520300000000000000000000000000000600082015250565b6111bb81610f35565b81146111c657600080fd5b50565b6111d281610f47565b81146111dd57600080fd5b50565b6111e981610f73565b81146111f457600080fd5b5056fea26469706673582212203e884d9d011485a67c3787707dda933a7c2ffb0cde0d0eb55b5eb01dc8f0ac4a64736f6c63430008040033",
  "immutableReferences": {},
  "source": "// SPDX-License-Identifier: GPL-3.0\n\npragma solidity ^0.8.4;\n\n\nimport \"./AmongusToken.sol\";\nimport \"./StableToken.sol\";\n\n\ncontract YieldFarming {\n        \n        string public name = \"Dapp Farm Token\"; \n        address public owner;\n\n        StableToken public stableToken; \n        AmongusToken public amongusToken;\n\n        address[] public deposers;\n        mapping(address => uint) public deposingBalance;\n        mapping(address => bool) public hasDeposited;\n        mapping(address => bool) public isDeposing;\n\n        constructor(StableToken _stableToken, AmongusToken _amongusToken) {\n            stableToken = _stableToken; \n            amongusToken = _amongusToken;\n            owner = msg.sender;\n        }\n\n        function deposeTokens(uint _amount) public{\n            // To depose, you need to depose more than 0\n\n            require(_amount > 0, \"amount cannot be 0\");\n\n            // Trasnfer stable tokens to this contract for deposing\n            stableToken.transferFrom(msg.sender, address(this), _amount);\n\n            // Update deposing balance\n            deposingBalance[msg.sender] = deposingBalance[msg.sender] + _amount;\n\n            // Add user to deposers array *only* if they haven't deposed already\n            if(!hasDeposited[msg.sender]) {\n                deposers.push(msg.sender);\n            }\n\n            // Update depose status\n            isDeposing[msg.sender] = true;\n            hasDeposited[msg.sender] = true;\n        }\n\n         // undepose Tokens (Withdraw)\n        function undeposeTokens() public {\n            // Fetch staking balance\n            uint user_balance = deposingBalance[msg.sender];\n           \n            // Can't have less than 0 staked tokens\n            require(user_balance > 0, \"Kinda SUS, where is your balance?\");\n\n            // Transfer stable tokens to this contract for staking\n            stableToken.transfer(msg.sender, user_balance);\n\n            // Reset staking balance\n            deposingBalance[msg.sender] = 0;\n\n            // Update staking status\n            isDeposing[msg.sender] = false;\n        }\n\n\n        // Issuing Tokens \n        function issueToken() public {\n            //only owner can call this function \n            require(msg.sender == owner, \"caller must be the owner\"); \n\n            uint total_deposited_balance = 0;\n\n            //calculate total amount of deoposited balance of all users together \n            for(uint i=0; i < deposers.length; i++) {\n                total_deposited_balance = total_deposited_balance + deposingBalance[deposers[i]]; \n            }\n\n            // send intrest tokens (amonugsTokens) to the users that deposited stable tokens\n            for (uint i = 0; i < deposers.length; i++){\n                address recipient = deposers[i]; \n                uint balance = deposingBalance[recipient]; \n\n                //calculate intrest to send to the different users \n                uint intrest = (balance / total_deposited_balance) / 10; \n\n                if(balance >0){\n                amongusToken.transfer(recipient, intrest);\n                }\n            }\n\n        /*    uint total_balance = 0;\n            //uint first_rate = 10;\n            for (uint i=0; i < deposers.length; i++) {\n                total_balance = total_balance + deposingBalance[deposers[i]];\n            }\n            uint interests = user_balance / total_balance;\n\n            // The idea here is to receive an amount of stableTokens proportional to the amount staked\n\n            // Can't have less than 0 staked tokens\n            require(user_balance > 0, \"Kinda SUS, where is your balance?\");\n\n            // Transfer stable tokens to this contract for staking\n            amongusToken.transfer(msg.sender, user_balance * interests);\n\n            // Reset staking balance\n            deposingBalance[msg.sender] = 0;\n \n */\n        }\n\n\n\n\n}",
  "sourcePath": "/Users/Can_Inan/AmogusFinance/src/contracts/YiealdFarming.sol",
  "compiler": {
    "name": "solc",
    "version": "0.8.4+commit.c7e474f2.Emscripten.clang"
  },
  "schemaVersion": "3.4.0",
  "updatedAt": "2021-05-06T22:05:51.204Z",
  "devdoc": {
    "kind": "dev",
    "methods": {},
    "version": 1
  },
  "userdoc": {
    "kind": "user",
    "methods": {},
    "version": 1
  }
}